{
  "_format": "hh-sol-artifact-1",
  "contractName": "DegenToken",
  "sourceName": "contracts/DegenToken.sol",
  "abi": [
    {
      "inputs": [],
      "stateMutability": "nonpayable",
      "type": "constructor"
    },
    {
      "anonymous": false,
      "inputs": [
        {
          "indexed": true,
          "internalType": "address",
          "name": "owner",
          "type": "address"
        },
        {
          "indexed": true,
          "internalType": "address",
          "name": "spender",
          "type": "address"
        },
        {
          "indexed": false,
          "internalType": "uint256",
          "name": "value",
          "type": "uint256"
        }
      ],
      "name": "Approval",
      "type": "event"
    },
    {
      "anonymous": false,
      "inputs": [
        {
          "indexed": true,
          "internalType": "address",
          "name": "previousOwner",
          "type": "address"
        },
        {
          "indexed": true,
          "internalType": "address",
          "name": "newOwner",
          "type": "address"
        }
      ],
      "name": "OwnershipTransferred",
      "type": "event"
    },
    {
      "anonymous": false,
      "inputs": [
        {
          "indexed": true,
          "internalType": "address",
          "name": "from",
          "type": "address"
        },
        {
          "indexed": true,
          "internalType": "address",
          "name": "to",
          "type": "address"
        },
        {
          "indexed": false,
          "internalType": "uint256",
          "name": "value",
          "type": "uint256"
        }
      ],
      "name": "Transfer",
      "type": "event"
    },
    {
      "inputs": [
        {
          "internalType": "address",
          "name": "owner",
          "type": "address"
        },
        {
          "internalType": "address",
          "name": "spender",
          "type": "address"
        }
      ],
      "name": "allowance",
      "outputs": [
        {
          "internalType": "uint256",
          "name": "",
          "type": "uint256"
        }
      ],
      "stateMutability": "view",
      "type": "function"
    },
    {
      "inputs": [
        {
          "internalType": "address",
          "name": "spender",
          "type": "address"
        },
        {
          "internalType": "uint256",
          "name": "amount",
          "type": "uint256"
        }
      ],
      "name": "approve",
      "outputs": [
        {
          "internalType": "bool",
          "name": "",
          "type": "bool"
        }
      ],
      "stateMutability": "nonpayable",
      "type": "function"
    },
    {
      "inputs": [
        {
          "internalType": "address",
          "name": "account",
          "type": "address"
        }
      ],
      "name": "balanceOf",
      "outputs": [
        {
          "internalType": "uint256",
          "name": "",
          "type": "uint256"
        }
      ],
      "stateMutability": "view",
      "type": "function"
    },
    {
      "inputs": [
        {
          "internalType": "uint256",
          "name": "amount",
          "type": "uint256"
        }
      ],
      "name": "burn",
      "outputs": [],
      "stateMutability": "nonpayable",
      "type": "function"
    },
    {
      "inputs": [
        {
          "internalType": "address",
          "name": "account",
          "type": "address"
        },
        {
          "internalType": "uint256",
          "name": "amount",
          "type": "uint256"
        }
      ],
      "name": "burnDegen",
      "outputs": [],
      "stateMutability": "nonpayable",
      "type": "function"
    },
    {
      "inputs": [
        {
          "internalType": "address",
          "name": "account",
          "type": "address"
        },
        {
          "internalType": "uint256",
          "name": "amount",
          "type": "uint256"
        }
      ],
      "name": "burnFrom",
      "outputs": [],
      "stateMutability": "nonpayable",
      "type": "function"
    },
    {
      "inputs": [],
      "name": "decimals",
      "outputs": [
        {
          "internalType": "uint8",
          "name": "",
          "type": "uint8"
        }
      ],
      "stateMutability": "view",
      "type": "function"
    },
    {
      "inputs": [
        {
          "internalType": "address",
          "name": "spender",
          "type": "address"
        },
        {
          "internalType": "uint256",
          "name": "subtractedValue",
          "type": "uint256"
        }
      ],
      "name": "decreaseAllowance",
      "outputs": [
        {
          "internalType": "bool",
          "name": "",
          "type": "bool"
        }
      ],
      "stateMutability": "nonpayable",
      "type": "function"
    },
    {
      "inputs": [],
      "name": "exploreItems",
      "outputs": [
        {
          "internalType": "string[]",
          "name": "",
          "type": "string[]"
        }
      ],
      "stateMutability": "pure",
      "type": "function"
    },
    {
      "inputs": [],
      "name": "getDegenBalance",
      "outputs": [
        {
          "internalType": "uint256",
          "name": "",
          "type": "uint256"
        }
      ],
      "stateMutability": "view",
      "type": "function"
    },
    {
      "inputs": [
        {
          "internalType": "address",
          "name": "spender",
          "type": "address"
        },
        {
          "internalType": "uint256",
          "name": "addedValue",
          "type": "uint256"
        }
      ],
      "name": "increaseAllowance",
      "outputs": [
        {
          "internalType": "bool",
          "name": "",
          "type": "bool"
        }
      ],
      "stateMutability": "nonpayable",
      "type": "function"
    },
    {
      "inputs": [
        {
          "internalType": "address",
          "name": "account",
          "type": "address"
        },
        {
          "internalType": "uint256",
          "name": "amount",
          "type": "uint256"
        }
      ],
      "name": "mintDegen",
      "outputs": [],
      "stateMutability": "nonpayable",
      "type": "function"
    },
    {
      "inputs": [],
      "name": "name",
      "outputs": [
        {
          "internalType": "string",
          "name": "",
          "type": "string"
        }
      ],
      "stateMutability": "view",
      "type": "function"
    },
    {
      "inputs": [],
      "name": "owner",
      "outputs": [
        {
          "internalType": "address",
          "name": "",
          "type": "address"
        }
      ],
      "stateMutability": "view",
      "type": "function"
    },
    {
      "inputs": [
        {
          "internalType": "uint256",
          "name": "choice",
          "type": "uint256"
        }
      ],
      "name": "redeemItem",
      "outputs": [],
      "stateMutability": "payable",
      "type": "function"
    },
    {
      "inputs": [],
      "name": "renounceOwnership",
      "outputs": [],
      "stateMutability": "nonpayable",
      "type": "function"
    },
    {
      "inputs": [],
      "name": "symbol",
      "outputs": [
        {
          "internalType": "string",
          "name": "",
          "type": "string"
        }
      ],
      "stateMutability": "view",
      "type": "function"
    },
    {
      "inputs": [],
      "name": "totalSupply",
      "outputs": [
        {
          "internalType": "uint256",
          "name": "",
          "type": "uint256"
        }
      ],
      "stateMutability": "view",
      "type": "function"
    },
    {
      "inputs": [
        {
          "internalType": "address",
          "name": "to",
          "type": "address"
        },
        {
          "internalType": "uint256",
          "name": "amount",
          "type": "uint256"
        }
      ],
      "name": "transfer",
      "outputs": [
        {
          "internalType": "bool",
          "name": "",
          "type": "bool"
        }
      ],
      "stateMutability": "nonpayable",
      "type": "function"
    },
    {
      "inputs": [
        {
          "internalType": "address",
          "name": "recipient",
          "type": "address"
        },
        {
          "internalType": "uint256",
          "name": "amount",
          "type": "uint256"
        }
      ],
      "name": "transferDegenTokens",
      "outputs": [],
      "stateMutability": "nonpayable",
      "type": "function"
    },
    {
      "inputs": [
        {
          "internalType": "address",
          "name": "from",
          "type": "address"
        },
        {
          "internalType": "address",
          "name": "to",
          "type": "address"
        },
        {
          "internalType": "uint256",
          "name": "amount",
          "type": "uint256"
        }
      ],
      "name": "transferFrom",
      "outputs": [
        {
          "internalType": "bool",
          "name": "",
          "type": "bool"
        }
      ],
      "stateMutability": "nonpayable",
      "type": "function"
    },
    {
      "inputs": [
        {
          "internalType": "address",
          "name": "newOwner",
          "type": "address"
        }
      ],
      "name": "transferOwnership",
      "outputs": [],
      "stateMutability": "nonpayable",
      "type": "function"
    }
  ],
  "bytecode": "0x60806040523480156200001157600080fd5b506040518060400160405280600581526020017f446567656e0000000000000000000000000000000000000000000000000000008152506040518060400160405280600381526020017f44474e000000000000000000000000000000000000000000000000000000000081525081600390816200008f919062000460565b508060049081620000a1919062000460565b505050620000c4620000b86200011860201b60201c565b6200012060201b60201c565b60646006600060018152602001908152602001600020819055506032600660006002815260200190815260200160002081905550601460066000600381526020019081526020016000208190555062000547565b600033905090565b6000600560009054906101000a900473ffffffffffffffffffffffffffffffffffffffff16905081600560006101000a81548173ffffffffffffffffffffffffffffffffffffffff021916908373ffffffffffffffffffffffffffffffffffffffff1602179055508173ffffffffffffffffffffffffffffffffffffffff168173ffffffffffffffffffffffffffffffffffffffff167f8be0079c531659141344cd1fd0a4f28419497f9722a3daafe3b4186f6b6457e060405160405180910390a35050565b600081519050919050565b7f4e487b7100000000000000000000000000000000000000000000000000000000600052604160045260246000fd5b7f4e487b7100000000000000000000000000000000000000000000000000000000600052602260045260246000fd5b600060028204905060018216806200026857607f821691505b6020821081036200027e576200027d62000220565b5b50919050565b60008190508160005260206000209050919050565b60006020601f8301049050919050565b600082821b905092915050565b600060088302620002e87fffffffffffffffffffffffffffffffffffffffffffffffffffffffffffffffff82620002a9565b620002f48683620002a9565b95508019841693508086168417925050509392505050565b6000819050919050565b6000819050919050565b6000620003416200033b62000335846200030c565b62000316565b6200030c565b9050919050565b6000819050919050565b6200035d8362000320565b620003756200036c8262000348565b848454620002b6565b825550505050565b600090565b6200038c6200037d565b6200039981848462000352565b505050565b5b81811015620003c157620003b560008262000382565b6001810190506200039f565b5050565b601f8211156200041057620003da8162000284565b620003e58462000299565b81016020851015620003f5578190505b6200040d620004048562000299565b8301826200039e565b50505b505050565b600082821c905092915050565b6000620004356000198460080262000415565b1980831691505092915050565b600062000450838362000422565b9150826002028217905092915050565b6200046b82620001e6565b67ffffffffffffffff811115620004875762000486620001f1565b5b6200049382546200024f565b620004a0828285620003c5565b600060209050601f831160018114620004d85760008415620004c3578287015190505b620004cf858262000442565b8655506200053f565b601f198416620004e88662000284565b60005b828110156200051257848901518255600182019150602085019450602081019050620004eb565b868310156200053257848901516200052e601f89168262000422565b8355505b6001600288020188555050505b505050505050565b61228a80620005576000396000f3fe6080604052600436106101355760003560e01c806370a08231116100ab578063a457c2d71161006f578063a457c2d714610407578063a9059cbb14610444578063c9a12f3414610481578063dd62ed3e146104aa578063e89c01cb146104e7578063f2fde38b1461051257610135565b806370a0823114610334578063715018a61461037157806379cc6790146103885780638da5cb5b146103b157806395d89b41146103dc57610135565b806323b872dd116100fd57806323b872dd146102125780632709af771461024f578063312bb8a914610278578063313ce567146102a357806339509351146102ce57806342966c681461030b57610135565b806306fdde031461013a578063094e4df514610165578063095ea7b31461018e57806318160ddd146101cb5780631c26dc23146101f6575b600080fd5b34801561014657600080fd5b5061014f61053b565b60405161015c919061161e565b60405180910390f35b34801561017157600080fd5b5061018c600480360381019061018791906116d9565b6105cd565b005b34801561019a57600080fd5b506101b560048036038101906101b091906116d9565b610628565b6040516101c29190611734565b60405180910390f35b3480156101d757600080fd5b506101e061064b565b6040516101ed919061175e565b60405180910390f35b610210600480360381019061020b9190611779565b610655565b005b34801561021e57600080fd5b50610239600480360381019061023491906117a6565b610711565b6040516102469190611734565b60405180910390f35b34801561025b57600080fd5b50610276600480360381019061027191906116d9565b610740565b005b34801561028457600080fd5b5061028d610799565b60405161029a919061175e565b60405180910390f35b3480156102af57600080fd5b506102b86107a9565b6040516102c59190611815565b60405180910390f35b3480156102da57600080fd5b506102f560048036038101906102f091906116d9565b6107b2565b6040516103029190611734565b60405180910390f35b34801561031757600080fd5b50610332600480360381019061032d9190611779565b6107e9565b005b34801561034057600080fd5b5061035b60048036038101906103569190611830565b6107fd565b604051610368919061175e565b60405180910390f35b34801561037d57600080fd5b50610386610845565b005b34801561039457600080fd5b506103af60048036038101906103aa91906116d9565b610859565b005b3480156103bd57600080fd5b506103c6610879565b6040516103d3919061186c565b60405180910390f35b3480156103e857600080fd5b506103f16108a3565b6040516103fe919061161e565b60405180910390f35b34801561041357600080fd5b5061042e600480360381019061042991906116d9565b610935565b60405161043b9190611734565b60405180910390f35b34801561045057600080fd5b5061046b600480360381019061046691906116d9565b6109ac565b6040516104789190611734565b60405180910390f35b34801561048d57600080fd5b506104a860048036038101906104a391906116d9565b6109cf565b005b3480156104b657600080fd5b506104d160048036038101906104cc9190611887565b6109e5565b6040516104de919061175e565b60405180910390f35b3480156104f357600080fd5b506104fc610a6c565b60405161050991906119d3565b60405180910390f35b34801561051e57600080fd5b5061053960048036038101906105349190611830565b610bc7565b005b60606003805461054a90611a24565b80601f016020809104026020016040519081016040528092919081815260200182805461057690611a24565b80156105c35780601f10610598576101008083540402835291602001916105c3565b820191906000526020600020905b8154815290600101906020018083116105a657829003601f168201915b5050505050905090565b806105d7336107fd565b1015610618576040517f08c379a000000000000000000000000000000000000000000000000000000000815260040161060f90611aa1565b60405180910390fd5b610623338383610711565b505050565b600080610633610c4a565b9050610640818585610c52565b600191505092915050565b6000600254905090565b600060066000838152602001908152602001600020549050600081116106b0576040517f08c379a00000000000000000000000000000000000000000000000000000000081526004016106a790611b0d565b60405180910390fd5b806106ba336107fd565b10156106fb576040517f08c379a00000000000000000000000000000000000000000000000000000000081526004016106f290611aa1565b60405180910390fd5b61070d33610707610879565b83610e1b565b5050565b60008061071c610c4a565b9050610729858285611091565b610734858585610e1b565b60019150509392505050565b8061074a836107fd565b101561078b576040517f08c379a000000000000000000000000000000000000000000000000000000000815260040161078290611aa1565b60405180910390fd5b610795828261111d565b5050565b60006107a4336107fd565b905090565b60006012905090565b6000806107bd610c4a565b90506107de8185856107cf85896109e5565b6107d99190611b5c565b610c52565b600191505092915050565b6107fa6107f4610c4a565b8261111d565b50565b60008060008373ffffffffffffffffffffffffffffffffffffffff1673ffffffffffffffffffffffffffffffffffffffff168152602001908152602001600020549050919050565b61084d6112ea565b6108576000611368565b565b61086b82610865610c4a565b83611091565b610875828261111d565b5050565b6000600560009054906101000a900473ffffffffffffffffffffffffffffffffffffffff16905090565b6060600480546108b290611a24565b80601f01602080910402602001604051908101604052809291908181526020018280546108de90611a24565b801561092b5780601f106109005761010080835404028352916020019161092b565b820191906000526020600020905b81548152906001019060200180831161090e57829003601f168201915b5050505050905090565b600080610940610c4a565b9050600061094e82866109e5565b905083811015610993576040517f08c379a000000000000000000000000000000000000000000000000000000000815260040161098a90611c02565b60405180910390fd5b6109a08286868403610c52565b60019250505092915050565b6000806109b7610c4a565b90506109c4818585610e1b565b600191505092915050565b6109d76112ea565b6109e1828261142e565b5050565b6000600160008473ffffffffffffffffffffffffffffffffffffffff1673ffffffffffffffffffffffffffffffffffffffff16815260200190815260200160002060008373ffffffffffffffffffffffffffffffffffffffff1673ffffffffffffffffffffffffffffffffffffffff16815260200190815260200160002054905092915050565b60606000600367ffffffffffffffff811115610a8b57610a8a611c22565b5b604051908082528060200260200182016040528015610abe57816020015b6060815260200190600190039081610aa95790505b5090506040518060400160405280601f81526020017f312e204469676974616c2041737365727473202d2031303020546f6b656e730081525081600081518110610b0b57610b0a611c51565b5b60200260200101819052506040518060400160405280601381526020017f322e204e465473202d20353020546f6b656e730000000000000000000000000081525081600181518110610b6057610b5f611c51565b5b60200260200101819052506040518060400160405280601981526020017f332e2046525820546f6b656e73202d20323020546f6b656e730000000000000081525081600281518110610bb557610bb4611c51565b5b60200260200101819052508091505090565b610bcf6112ea565b600073ffffffffffffffffffffffffffffffffffffffff168173ffffffffffffffffffffffffffffffffffffffff1603610c3e576040517f08c379a0000000000000000000000000000000000000000000000000000000008152600401610c3590611cf2565b60405180910390fd5b610c4781611368565b50565b600033905090565b600073ffffffffffffffffffffffffffffffffffffffff168373ffffffffffffffffffffffffffffffffffffffff1603610cc1576040517f08c379a0000000000000000000000000000000000000000000000000000000008152600401610cb890611d84565b60405180910390fd5b600073ffffffffffffffffffffffffffffffffffffffff168273ffffffffffffffffffffffffffffffffffffffff1603610d30576040517f08c379a0000000000000000000000000000000000000000000000000000000008152600401610d2790611e16565b60405180910390fd5b80600160008573ffffffffffffffffffffffffffffffffffffffff1673ffffffffffffffffffffffffffffffffffffffff16815260200190815260200160002060008473ffffffffffffffffffffffffffffffffffffffff1673ffffffffffffffffffffffffffffffffffffffff168152602001908152602001600020819055508173ffffffffffffffffffffffffffffffffffffffff168373ffffffffffffffffffffffffffffffffffffffff167f8c5be1e5ebec7d5bd14f71427d1e84f3dd0314c0f7b2291e5b200ac8c7c3b92583604051610e0e919061175e565b60405180910390a3505050565b600073ffffffffffffffffffffffffffffffffffffffff168373ffffffffffffffffffffffffffffffffffffffff1603610e8a576040517f08c379a0000000000000000000000000000000000000000000000000000000008152600401610e8190611ea8565b60405180910390fd5b600073ffffffffffffffffffffffffffffffffffffffff168273ffffffffffffffffffffffffffffffffffffffff1603610ef9576040517f08c379a0000000000000000000000000000000000000000000000000000000008152600401610ef090611f3a565b60405180910390fd5b610f04838383611584565b60008060008573ffffffffffffffffffffffffffffffffffffffff1673ffffffffffffffffffffffffffffffffffffffff16815260200190815260200160002054905081811015610f8a576040517f08c379a0000000000000000000000000000000000000000000000000000000008152600401610f8190611fcc565b60405180910390fd5b8181036000808673ffffffffffffffffffffffffffffffffffffffff1673ffffffffffffffffffffffffffffffffffffffff16815260200190815260200160002081905550816000808573ffffffffffffffffffffffffffffffffffffffff1673ffffffffffffffffffffffffffffffffffffffff168152602001908152602001600020600082825401925050819055508273ffffffffffffffffffffffffffffffffffffffff168473ffffffffffffffffffffffffffffffffffffffff167fddf252ad1be2c89b69c2b068fc378daa952ba7f163c4a11628f55a4df523b3ef84604051611078919061175e565b60405180910390a361108b848484611589565b50505050565b600061109d84846109e5565b90507fffffffffffffffffffffffffffffffffffffffffffffffffffffffffffffffff81146111175781811015611109576040517f08c379a000000000000000000000000000000000000000000000000000000000815260040161110090612038565b60405180910390fd5b6111168484848403610c52565b5b50505050565b600073ffffffffffffffffffffffffffffffffffffffff168273ffffffffffffffffffffffffffffffffffffffff160361118c576040517f08c379a0000000000000000000000000000000000000000000000000000000008152600401611183906120ca565b60405180910390fd5b61119882600083611584565b60008060008473ffffffffffffffffffffffffffffffffffffffff1673ffffffffffffffffffffffffffffffffffffffff1681526020019081526020016000205490508181101561121e576040517f08c379a00000000000000000000000000000000000000000000000000000000081526004016112159061215c565b60405180910390fd5b8181036000808573ffffffffffffffffffffffffffffffffffffffff1673ffffffffffffffffffffffffffffffffffffffff1681526020019081526020016000208190555081600260008282540392505081905550600073ffffffffffffffffffffffffffffffffffffffff168373ffffffffffffffffffffffffffffffffffffffff167fddf252ad1be2c89b69c2b068fc378daa952ba7f163c4a11628f55a4df523b3ef846040516112d1919061175e565b60405180910390a36112e583600084611589565b505050565b6112f2610c4a565b73ffffffffffffffffffffffffffffffffffffffff16611310610879565b73ffffffffffffffffffffffffffffffffffffffff1614611366576040517f08c379a000000000000000000000000000000000000000000000000000000000815260040161135d906121c8565b60405180910390fd5b565b6000600560009054906101000a900473ffffffffffffffffffffffffffffffffffffffff16905081600560006101000a81548173ffffffffffffffffffffffffffffffffffffffff021916908373ffffffffffffffffffffffffffffffffffffffff1602179055508173ffffffffffffffffffffffffffffffffffffffff168173ffffffffffffffffffffffffffffffffffffffff167f8be0079c531659141344cd1fd0a4f28419497f9722a3daafe3b4186f6b6457e060405160405180910390a35050565b600073ffffffffffffffffffffffffffffffffffffffff168273ffffffffffffffffffffffffffffffffffffffff160361149d576040517f08c379a000000000000000000000000000000000000000000000000000000000815260040161149490612234565b60405180910390fd5b6114a960008383611584565b80600260008282546114bb9190611b5c565b92505081905550806000808473ffffffffffffffffffffffffffffffffffffffff1673ffffffffffffffffffffffffffffffffffffffff168152602001908152602001600020600082825401925050819055508173ffffffffffffffffffffffffffffffffffffffff16600073ffffffffffffffffffffffffffffffffffffffff167fddf252ad1be2c89b69c2b068fc378daa952ba7f163c4a11628f55a4df523b3ef8360405161156c919061175e565b60405180910390a361158060008383611589565b5050565b505050565b505050565b600081519050919050565b600082825260208201905092915050565b60005b838110156115c85780820151818401526020810190506115ad565b60008484015250505050565b6000601f19601f8301169050919050565b60006115f08261158e565b6115fa8185611599565b935061160a8185602086016115aa565b611613816115d4565b840191505092915050565b6000602082019050818103600083015261163881846115e5565b905092915050565b600080fd5b600073ffffffffffffffffffffffffffffffffffffffff82169050919050565b600061167082611645565b9050919050565b61168081611665565b811461168b57600080fd5b50565b60008135905061169d81611677565b92915050565b6000819050919050565b6116b6816116a3565b81146116c157600080fd5b50565b6000813590506116d3816116ad565b92915050565b600080604083850312156116f0576116ef611640565b5b60006116fe8582860161168e565b925050602061170f858286016116c4565b9150509250929050565b60008115159050919050565b61172e81611719565b82525050565b60006020820190506117496000830184611725565b92915050565b611758816116a3565b82525050565b6000602082019050611773600083018461174f565b92915050565b60006020828403121561178f5761178e611640565b5b600061179d848285016116c4565b91505092915050565b6000806000606084860312156117bf576117be611640565b5b60006117cd8682870161168e565b93505060206117de8682870161168e565b92505060406117ef868287016116c4565b9150509250925092565b600060ff82169050919050565b61180f816117f9565b82525050565b600060208201905061182a6000830184611806565b92915050565b60006020828403121561184657611845611640565b5b60006118548482850161168e565b91505092915050565b61186681611665565b82525050565b6000602082019050611881600083018461185d565b92915050565b6000806040838503121561189e5761189d611640565b5b60006118ac8582860161168e565b92505060206118bd8582860161168e565b9150509250929050565b600081519050919050565b600082825260208201905092915050565b6000819050602082019050919050565b600082825260208201905092915050565b600061190f8261158e565b61191981856118f3565b93506119298185602086016115aa565b611932816115d4565b840191505092915050565b60006119498383611904565b905092915050565b6000602082019050919050565b6000611969826118c7565b61197381856118d2565b935083602082028501611985856118e3565b8060005b858110156119c157848403895281516119a2858261193d565b94506119ad83611951565b925060208a01995050600181019050611989565b50829750879550505050505092915050565b600060208201905081810360008301526119ed818461195e565b905092915050565b7f4e487b7100000000000000000000000000000000000000000000000000000000600052602260045260246000fd5b60006002820490506001821680611a3c57607f821691505b602082108103611a4f57611a4e6119f5565b5b50919050565b7f496e73756666696369656e742062616c616e6365000000000000000000000000600082015250565b6000611a8b601483611599565b9150611a9682611a55565b602082019050919050565b60006020820190508181036000830152611aba81611a7e565b9050919050565b7f496e76616c69642063686f696365000000000000000000000000000000000000600082015250565b6000611af7600e83611599565b9150611b0282611ac1565b602082019050919050565b60006020820190508181036000830152611b2681611aea565b9050919050565b7f4e487b7100000000000000000000000000000000000000000000000000000000600052601160045260246000fd5b6000611b67826116a3565b9150611b72836116a3565b9250828201905080821115611b8a57611b89611b2d565b5b92915050565b7f45524332303a2064656372656173656420616c6c6f77616e63652062656c6f7760008201527f207a65726f000000000000000000000000000000000000000000000000000000602082015250565b6000611bec602583611599565b9150611bf782611b90565b604082019050919050565b60006020820190508181036000830152611c1b81611bdf565b9050919050565b7f4e487b7100000000000000000000000000000000000000000000000000000000600052604160045260246000fd5b7f4e487b7100000000000000000000000000000000000000000000000000000000600052603260045260246000fd5b7f4f776e61626c653a206e6577206f776e657220697320746865207a65726f206160008201527f6464726573730000000000000000000000000000000000000000000000000000602082015250565b6000611cdc602683611599565b9150611ce782611c80565b604082019050919050565b60006020820190508181036000830152611d0b81611ccf565b9050919050565b7f45524332303a20617070726f76652066726f6d20746865207a65726f2061646460008201527f7265737300000000000000000000000000000000000000000000000000000000602082015250565b6000611d6e602483611599565b9150611d7982611d12565b604082019050919050565b60006020820190508181036000830152611d9d81611d61565b9050919050565b7f45524332303a20617070726f766520746f20746865207a65726f20616464726560008201527f7373000000000000000000000000000000000000000000000000000000000000602082015250565b6000611e00602283611599565b9150611e0b82611da4565b604082019050919050565b60006020820190508181036000830152611e2f81611df3565b9050919050565b7f45524332303a207472616e736665722066726f6d20746865207a65726f20616460008201527f6472657373000000000000000000000000000000000000000000000000000000602082015250565b6000611e92602583611599565b9150611e9d82611e36565b604082019050919050565b60006020820190508181036000830152611ec181611e85565b9050919050565b7f45524332303a207472616e7366657220746f20746865207a65726f206164647260008201527f6573730000000000000000000000000000000000000000000000000000000000602082015250565b6000611f24602383611599565b9150611f2f82611ec8565b604082019050919050565b60006020820190508181036000830152611f5381611f17565b9050919050565b7f45524332303a207472616e7366657220616d6f756e742065786365656473206260008201527f616c616e63650000000000000000000000000000000000000000000000000000602082015250565b6000611fb6602683611599565b9150611fc182611f5a565b604082019050919050565b60006020820190508181036000830152611fe581611fa9565b9050919050565b7f45524332303a20696e73756666696369656e7420616c6c6f77616e6365000000600082015250565b6000612022601d83611599565b915061202d82611fec565b602082019050919050565b6000602082019050818103600083015261205181612015565b9050919050565b7f45524332303a206275726e2066726f6d20746865207a65726f2061646472657360008201527f7300000000000000000000000000000000000000000000000000000000000000602082015250565b60006120b4602183611599565b91506120bf82612058565b604082019050919050565b600060208201905081810360008301526120e3816120a7565b9050919050565b7f45524332303a206275726e20616d6f756e7420657863656564732062616c616e60008201527f6365000000000000000000000000000000000000000000000000000000000000602082015250565b6000612146602283611599565b9150612151826120ea565b604082019050919050565b6000602082019050818103600083015261217581612139565b9050919050565b7f4f776e61626c653a2063616c6c6572206973206e6f7420746865206f776e6572600082015250565b60006121b2602083611599565b91506121bd8261217c565b602082019050919050565b600060208201905081810360008301526121e1816121a5565b9050919050565b7f45524332303a206d696e7420746f20746865207a65726f206164647265737300600082015250565b600061221e601f83611599565b9150612229826121e8565b602082019050919050565b6000602082019050818103600083015261224d81612211565b905091905056fea2646970667358221220e9cd49d86240e2dc34190a4908332295a3db3ed8e8817799c388fc90f9c62e8664736f6c63430008120033",
  "linkReferences": {},
  "deployedLinkReferences": {}
}